:020000040800F2
:10000000B0060020B1010008B9010008BB010008DA
:10001000BD010008BF010008C10100080000000088
:10002000000000000000000000000000C301000804
:10003000C501000800000000C7010008C901000850
:10004000CB010008CB010008CB010008CB01000860
:10005000CB010008CB010008CB010008CB01000850
:10006000CB010008CB010008CB010008CB01000840
:10007000CB010008CB010008CB010008CB01000830
:10008000CB010008CB010008CB010008CB01000820
:10009000CB010008CB010008CB010008CB01000810
:1000A000CB010008CB010008CB010008CB01000800
:1000B000CB010008CB010008CB010008CB010008F0
:1000C000CB010008CB010008CB010008CB010008E0
:1000D000CB010008C5050008CB010008CB010008D2
:1000E000CB010008CB010008CB010008CB010008C0
:1000F000CB010008CB010008CB010008CB010008B0
:10010000CB010008CB010008CB010008CB0100089F
:10011000CB010008CB010008CB010008CB0100088F
:10012000CB010008CB010008CB010008CB0100087F
:1001300000F002F800F02CF80AA090E8000C8244CD
:100140008344AAF10107DA4501D100F021F8AFF2AA
:10015000090EBAE80F0013F0010F18BFFB1A43F0A5
:1001600001031847C8060000D80600000023002439
:1001700000250026103A28BF78C1FBD8520728BFB7
:1001800030C148BF0B6070471FB51FBD10B510BD13
:1001900000F036F81146FFF7F7FF00F0F1FA00F033
:1001A00054F803B4FFF7F2FF03BC00F057F8000067
:1001B0000948804709480047FEE7FEE7FEE7FEE7FB
:1001C000FEE7FEE7FEE7FEE7FEE7FEE70448054937
:1001D000054A064B70470000B504000831010008CD
:1001E000B0000020B0060020B0020020B0020020C5
:1001F00070477047704700000048704700000020BB
:100200007546FFF7F9FFAE4605006946534620F0F4
:100210000700854618B020B5FFF7D8FFBDE820409D
:100220004FF000064FF000074FF000084FF0000BB2
:10023000AC46ACE8C009ACE8C009ACE8C009ACE821
:10024000C00921F007018D46704710B50446AFF391
:1002500000802046BDE81040FFF7A3BF01491820E9
:10026000ABBEFEE726000200704700002DE9F04714
:10027000CA7802F00F0CD30644BF8B784CEA030C0B
:1002800009880B0625D082465AF8144B00F1100E4F
:1002900000254FF001094FF00F08002706E000BFCE
:1002A0001E600137082F05F1040511D009FA07F681
:1002B0000E42F6D008FA05F324EA03030CFA05F41B
:1002C0001C43282A5346EBD0482AEAD17346E7E775
:1002D0000460B1F5807F38BFBDE8F087436800F166
:1002E000100E00F1140900254FF4807A4FF00F082A
:1002F000002705E034600137082F05F1040512D00E
:100300000AFA07F404EA0106A642F4D108FA05F64F
:10031000B3430CFA05F63343282A4E46EAD0482A5E
:10032000E9D17646E6E74360BDE8F08710B5C178CD
:1003300000294EF20011CEF200011AD04EF60C52F6
:10034000CEF200021268072323EA12220F23C2F121
:10035000040C23FA02F24378847890F800E003FA60
:100360000CF322401A43120101EB0E0383F8002321
:1003700000E080310078012300F01F0203FA02F24E
:10038000C0F3421041F8202010BD00002DE9F041DB
:1003900040F2A808C2F2000898F8000001282AD10B
:1003A00040F2A706C2F200063078042838BFBDE844
:1003B000F0813078B0B143F6000440F264050027C4
:1003C000C4F20104C2F20005E95D204600F0D4F950
:1003D0002046402100F052F90028F9D0307801374A
:1003E0008742F1D340F260010020C2F20001307078
:1003F000087088F80000BDE8F0810000002941F293
:100400001801C4F202010A680CBF22EA000010437E
:100410000860704710B541F20404C4F20204226877
:1004200002F00C02082A41F20022C0F27A021CD12A
:100430002368D4F800C0C3F3834E5FEACC330EF1D7
:10044000020C06D440F60012C0F23D020CFB02F290
:100450000BE023689B0302D40CFB02F205E040F69C
:100460000012C0F23D020CFB02F20260226840F66C
:100470001C03C2F30312C0F600039A5C0168D1406A
:1004800041602268C2F302229A5C21FA02F2826081
:100490002268C2F3C2229A5C40F61803D140C160C0
:1004A0002268C0F60003C2F381329A5CB1FBF2F11C
:1004B000016110BD82B041F20400C4F2020050F8A4
:1004C000041C002241F0010140F8041C0168CFF631
:1004D000FF021140016050F8041C4FF6FF72CFF686
:1004E000F662114040F8041C50F8041C21F48021ED
:1004F00040F8041C016821F4FE0101604FF41F0163
:10050000416000210191009150F8041C41F48031B8
:1005100040F8041C50F8041C01F4003100910199CA
:1005200001310191009919B90199B1F5A06FF1D18B
:1005300050F8041C890354BF002101210091009947
:10054000012936D142F20001C4F202010A6842F0E8
:1005500010020A600A6822F007020A600A6842F084
:1005600002020A600168016001680160016841F4EB
:1005700080610160016821F47C110160016841F42F
:10058000E811016050F8041C41F0807140F8041C2F
:1005900050F8041C8901FBD5016821F003010160BA
:1005A000016841F002010160016801F00C010829B5
:1005B000FAD14EF60850CEF200004FF00061016013
:1005C00002B070472DE9F04F81B043F60004C4F249
:1005D00001042046202100F051F8002841D040F2CB
:1005E000A80540F2A70640F2640840F26007C2F294
:1005F0000005C2F20006C2F20008C2F200074FF086
:10060000BB0B4FF003094FF0000A0BE03178422991
:100610009EBF4A1C327008F801002046202100F0DD
:100620002DF8F0B1204600F0A3F82978C0B20129D6
:10063000ECD00029F1D1AA2810D138780130C1B20C
:1006400003293870E9D1012028704BF6BB30A8F897
:10065000000088F802B086F80090DEE787F800A076
:10066000DBE701B0BDE8F08F8289002918BF0121C6
:1006700022F4005242EA41318181704700880840EB
:1006800018BF012070470000C1F3421301F01F0C96
:100690001421022B08BF1021012B4FF0010308BFCA
:1006A0000C21002A03FA0CF243580CBF23EA020281
:1006B0001A4342507047000070B586B00446008A65
:1006C0000D46C98820F4405008432082A0894EF688
:1006D000F3110840A9882A896B89084310431843FD
:1006E000A081A08AA98920F44070084301AEA082AD
:1006F0003046FFF78FFE43F6000106F10800C4F212
:1007000001018C4208BF06F10C0000681922B4F9FF
:100710000C1050432A680123B1F1FF3FC8BF0223E8
:1007200002FA03F1B0FBF1F048F21F51C5F2EB11F0
:10073000A0FB01235A096FF0630302FB0300B4F925
:100740000C300326B3F1FF3FC8BF042600FA06F0C1
:1007500000F13200A0FB01014FF00700C8BF0F20DD
:1007600000EA511040EA0210208106B070BD00007E
:1007700080886FF35F2070476FF35F21818070473F
:10078000FFF798FE4FF4E13000F004F8FFF7FEFDAC
:10079000FCE70000F0B587B0054644F204000121F3
:1007A000FFF72CFE43F6000440F20020C4F20104DF
:1007B000C1F60300A4F5405606AF06903046394610
:1007C000FFF754FD4FF48060ADF8180004208DF859
:1007D0001B0030463946FFF749FD00204FF4402109
:1007E00003900491ADF8140002A920460295FFF78A
:1007F00063FF204640F225510122FFF745FF2520E7
:10080000C0F20010019001A8FFF790FD20460121E1
:10081000FFF72AFF07B0F0BD020406080000000041
:100820000102030401020304060708093C0800084A
:0C08300000000020B00600006C01000871
:0400000508000131BD
:00000001FF
